{
  "contractName": "eVoting",
  "abi": [
    {
      "inputs": [],
      "stateMutability": "nonpayable",
      "type": "constructor"
    },
    {
      "inputs": [
        {
          "internalType": "uint256",
          "name": "",
          "type": "uint256"
        }
      ],
      "name": "candidatesList",
      "outputs": [
        {
          "internalType": "string",
          "name": "name",
          "type": "string"
        },
        {
          "internalType": "string",
          "name": "party",
          "type": "string"
        },
        {
          "internalType": "address",
          "name": "accountAddress",
          "type": "address"
        },
        {
          "internalType": "uint256",
          "name": "votersCount",
          "type": "uint256"
        }
      ],
      "stateMutability": "view",
      "type": "function",
      "constant": true
    },
    {
      "inputs": [],
      "name": "electionCommissioner",
      "outputs": [
        {
          "internalType": "address",
          "name": "",
          "type": "address"
        }
      ],
      "stateMutability": "view",
      "type": "function",
      "constant": true
    },
    {
      "inputs": [],
      "name": "feesForCandidates",
      "outputs": [
        {
          "internalType": "uint256",
          "name": "",
          "type": "uint256"
        }
      ],
      "stateMutability": "view",
      "type": "function",
      "constant": true
    },
    {
      "inputs": [],
      "name": "feesForVoters",
      "outputs": [
        {
          "internalType": "uint256",
          "name": "",
          "type": "uint256"
        }
      ],
      "stateMutability": "view",
      "type": "function",
      "constant": true
    },
    {
      "inputs": [],
      "name": "totalCandidatesCount",
      "outputs": [
        {
          "internalType": "uint256",
          "name": "",
          "type": "uint256"
        }
      ],
      "stateMutability": "view",
      "type": "function",
      "constant": true
    },
    {
      "inputs": [],
      "name": "totalVotersCount",
      "outputs": [
        {
          "internalType": "uint256",
          "name": "",
          "type": "uint256"
        }
      ],
      "stateMutability": "view",
      "type": "function",
      "constant": true
    },
    {
      "inputs": [
        {
          "internalType": "address",
          "name": "",
          "type": "address"
        }
      ],
      "name": "totalVotersList",
      "outputs": [
        {
          "internalType": "bool",
          "name": "",
          "type": "bool"
        }
      ],
      "stateMutability": "view",
      "type": "function",
      "constant": true
    },
    {
      "inputs": [],
      "name": "totalVotesCount",
      "outputs": [
        {
          "internalType": "uint256",
          "name": "",
          "type": "uint256"
        }
      ],
      "stateMutability": "view",
      "type": "function",
      "constant": true
    },
    {
      "inputs": [
        {
          "internalType": "address",
          "name": "",
          "type": "address"
        }
      ],
      "name": "votedList",
      "outputs": [
        {
          "internalType": "bool",
          "name": "",
          "type": "bool"
        }
      ],
      "stateMutability": "view",
      "type": "function",
      "constant": true
    },
    {
      "inputs": [
        {
          "internalType": "string",
          "name": "name",
          "type": "string"
        },
        {
          "internalType": "string",
          "name": "party",
          "type": "string"
        }
      ],
      "name": "registerAsCandidate",
      "outputs": [],
      "stateMutability": "payable",
      "type": "function",
      "payable": true
    },
    {
      "inputs": [],
      "name": "registerAsVoter",
      "outputs": [],
      "stateMutability": "nonpayable",
      "type": "function"
    },
    {
      "inputs": [],
      "name": "getCandidates",
      "outputs": [
        {
          "components": [
            {
              "internalType": "string",
              "name": "name",
              "type": "string"
            },
            {
              "internalType": "string",
              "name": "party",
              "type": "string"
            },
            {
              "internalType": "address",
              "name": "accountAddress",
              "type": "address"
            },
            {
              "internalType": "address[]",
              "name": "voters",
              "type": "address[]"
            },
            {
              "internalType": "uint256",
              "name": "votersCount",
              "type": "uint256"
            }
          ],
          "internalType": "struct eVoting.Candidate[]",
          "name": "",
          "type": "tuple[]"
        }
      ],
      "stateMutability": "view",
      "type": "function",
      "constant": true
    },
    {
      "inputs": [
        {
          "internalType": "address",
          "name": "candidate",
          "type": "address"
        },
        {
          "internalType": "uint256",
          "name": "index",
          "type": "uint256"
        }
      ],
      "name": "vote",
      "outputs": [],
      "stateMutability": "payable",
      "type": "function",
      "payable": true
    }
  ],
  "bytecode": "0x608060405234801561001057600080fd5b50336000806101000a81548173ffffffffffffffffffffffffffffffffffffffff021916908373ffffffffffffffffffffffffffffffffffffffff16021790555066b1a2bc2ec50000600581905550670c7d713b49da0000600681905550611a528061007d6000396000f3fe6080604052600436106100c25760003560e01c80635f49cf9c1161007f578063b96ee0dc11610059578063b96ee0dc1461022a578063df2d5ec714610267578063f09d50be146102a7578063f396d674146102d2576100c2565b80635f49cf9c146101ba5780635f74bbde146101f75780637866865814610213576100c2565b806304b8789b146100c757806306a49fce146100e357806318108d081461010e5780631bdbb2ab146101395780633fe4604314610164578063451891a61461018f575b600080fd5b6100e160048036038101906100dc9190611130565b6102fd565b005b3480156100ef57600080fd5b506100f8610558565b6040516101059190611686565b60405180910390f35b34801561011a57600080fd5b506101236107e9565b6040516101309190611836565b60405180910390f35b34801561014557600080fd5b5061014e6107ef565b60405161015b919061166b565b60405180910390f35b34801561017057600080fd5b50610179610813565b6040516101869190611836565b60405180910390f35b34801561019b57600080fd5b506101a4610819565b6040516101b19190611836565b60405180910390f35b3480156101c657600080fd5b506101e160048036038101906101dc91906110cb565b61081f565b6040516101ee91906116a8565b60405180910390f35b610211600480360381019061020c91906110f4565b61083f565b005b34801561021f57600080fd5b50610228610c50565b005b34801561023657600080fd5b50610251600480360381019061024c91906110cb565b610d48565b60405161025e91906116a8565b60405180910390f35b34801561027357600080fd5b5061028e6004803603810190610289919061119c565b610d68565b60405161029e94939291906116c3565b60405180910390f35b3480156102b357600080fd5b506102bc610ef8565b6040516102c99190611836565b60405180910390f35b3480156102de57600080fd5b506102e7610efe565b6040516102f49190611836565b60405180910390f35b6005543414610341576040517f08c379a0000000000000000000000000000000000000000000000000000000008152600401610338906117d6565b60405180910390fd5b600460003373ffffffffffffffffffffffffffffffffffffffff1673ffffffffffffffffffffffffffffffffffffffff16815260200190815260200160002060009054906101000a900460ff16156103ce576040517f08c379a00000000000000000000000000000000000000000000000000000000081526004016103c590611796565b60405180910390fd5b606060006040518060a001604052808581526020018481526020013373ffffffffffffffffffffffffffffffffffffffff168152602001838152602001600081525090506009600081548092919060010191905055506003819080600181540180825580915050600190039060005260206000209060050201600090919091909150600082015181600001908051906020019061046c929190610f04565b506020820151816001019080519060200190610489929190610f04565b5060408201518160020160006101000a81548173ffffffffffffffffffffffffffffffffffffffff021916908373ffffffffffffffffffffffffffffffffffffffff16021790555060608201518160030190805190602001906104ed929190610f92565b506080820151816004015550506001600460003373ffffffffffffffffffffffffffffffffffffffff1673ffffffffffffffffffffffffffffffffffffffff16815260200190815260200160002060006101000a81548160ff02191690831515021790555050505050565b60606003805480602002602001604051908101604052809291908181526020016000905b828210156107e057838290600052602060002090600502016040518060a0016040529081600082018054600181600116156101000203166002900480601f0160208091040260200160405190810160405280929190818152602001828054600181600116156101000203166002900480156106385780601f1061060d57610100808354040283529160200191610638565b820191906000526020600020905b81548152906001019060200180831161061b57829003601f168201915b50505050508152602001600182018054600181600116156101000203166002900480601f0160208091040260200160405190810160405280929190818152602001828054600181600116156101000203166002900480156106da5780601f106106af576101008083540402835291602001916106da565b820191906000526020600020905b8154815290600101906020018083116106bd57829003601f168201915b505050505081526020016002820160009054906101000a900473ffffffffffffffffffffffffffffffffffffffff1673ffffffffffffffffffffffffffffffffffffffff1673ffffffffffffffffffffffffffffffffffffffff168152602001600382018054806020026020016040519081016040528092919081815260200182805480156107be57602002820191906000526020600020905b8160009054906101000a900473ffffffffffffffffffffffffffffffffffffffff1673ffffffffffffffffffffffffffffffffffffffff1681526020019060010190808311610774575b505050505081526020016004820154815250508152602001906001019061057c565b50505050905090565b60055481565b60008054906101000a900473ffffffffffffffffffffffffffffffffffffffff1681565b60075481565b60095481565b60026020528060005260406000206000915054906101000a900460ff1681565b60003373ffffffffffffffffffffffffffffffffffffffff1631141561089a576040517f08c379a0000000000000000000000000000000000000000000000000000000008152600401610891906117f6565b60405180910390fd5b600160003373ffffffffffffffffffffffffffffffffffffffff1673ffffffffffffffffffffffffffffffffffffffff16815260200190815260200160002060009054906101000a900460ff16610926576040517f08c379a000000000000000000000000000000000000000000000000000000000815260040161091d90611736565b60405180910390fd5b600260003373ffffffffffffffffffffffffffffffffffffffff1673ffffffffffffffffffffffffffffffffffffffff16815260200190815260200160002060009054906101000a900460ff16156109b3576040517f08c379a00000000000000000000000000000000000000000000000000000000081526004016109aa90611716565b60405180910390fd5b670c7d713b49da000034146109fd576040517f08c379a00000000000000000000000000000000000000000000000000000000081526004016109f4906117b6565b60405180910390fd5b600460008373ffffffffffffffffffffffffffffffffffffffff1673ffffffffffffffffffffffffffffffffffffffff16815260200190815260200160002060009054906101000a900460ff16610a89576040517f08c379a0000000000000000000000000000000000000000000000000000000008152600401610a8090611776565b60405180910390fd5b8173ffffffffffffffffffffffffffffffffffffffff1660038281548110610aad57fe5b906000526020600020906005020160020160009054906101000a900473ffffffffffffffffffffffffffffffffffffffff1673ffffffffffffffffffffffffffffffffffffffff1614610b35576040517f08c379a0000000000000000000000000000000000000000000000000000000008152600401610b2c90611816565b60405180910390fd5b60038181548110610b4257fe5b90600052602060002090600502016004016000815480929190600101919050555060038181548110610b7057fe5b9060005260206000209060050201600301339080600181540180825580915050600190039060005260206000200160009091909190916101000a81548173ffffffffffffffffffffffffffffffffffffffff021916908373ffffffffffffffffffffffffffffffffffffffff1602179055506008600081548092919060010191905055506001600260003373ffffffffffffffffffffffffffffffffffffffff1673ffffffffffffffffffffffffffffffffffffffff16815260200190815260200160002060006101000a81548160ff0219169083151502179055505050565b600160003373ffffffffffffffffffffffffffffffffffffffff1673ffffffffffffffffffffffffffffffffffffffff16815260200190815260200160002060009054906101000a900460ff1615610cdd576040517f08c379a0000000000000000000000000000000000000000000000000000000008152600401610cd490611756565b60405180910390fd5b60076000815480929190600101919050555060018060003373ffffffffffffffffffffffffffffffffffffffff1673ffffffffffffffffffffffffffffffffffffffff16815260200190815260200160002060006101000a81548160ff021916908315150217905550565b60016020528060005260406000206000915054906101000a900460ff1681565b60038181548110610d7857600080fd5b9060005260206000209060050201600091509050806000018054600181600116156101000203166002900480601f016020809104026020016040519081016040528092919081815260200182805460018160011615610100020316600290048015610e245780601f10610df957610100808354040283529160200191610e24565b820191906000526020600020905b815481529060010190602001808311610e0757829003601f168201915b505050505090806001018054600181600116156101000203166002900480601f016020809104026020016040519081016040528092919081815260200182805460018160011615610100020316600290048015610ec25780601f10610e9757610100808354040283529160200191610ec2565b820191906000526020600020905b815481529060010190602001808311610ea557829003601f168201915b5050505050908060020160009054906101000a900473ffffffffffffffffffffffffffffffffffffffff16908060040154905084565b60065481565b60085481565b828054600181600116156101000203166002900490600052602060002090601f016020900481019282610f3a5760008555610f81565b82601f10610f5357805160ff1916838001178555610f81565b82800160010185558215610f81579182015b82811115610f80578251825591602001919060010190610f65565b5b509050610f8e919061101c565b5090565b82805482825590600052602060002090810192821561100b579160200282015b8281111561100a5782518260006101000a81548173ffffffffffffffffffffffffffffffffffffffff021916908373ffffffffffffffffffffffffffffffffffffffff16021790555091602001919060010190610fb2565b5b509050611018919061101c565b5090565b5b8082111561103557600081600090555060010161101d565b5090565b600061104c61104784611882565b611851565b90508281526020810184848401111561106457600080fd5b61106f848285611999565b509392505050565b600081359050611086816119ee565b92915050565b600082601f83011261109d57600080fd5b81356110ad848260208601611039565b91505092915050565b6000813590506110c581611a05565b92915050565b6000602082840312156110dd57600080fd5b60006110eb84828501611077565b91505092915050565b6000806040838503121561110757600080fd5b600061111585828601611077565b9250506020611126858286016110b6565b9150509250929050565b6000806040838503121561114357600080fd5b600083013567ffffffffffffffff81111561115d57600080fd5b6111698582860161108c565b925050602083013567ffffffffffffffff81111561118657600080fd5b6111928582860161108c565b9150509250929050565b6000602082840312156111ae57600080fd5b60006111bc848285016110b6565b91505092915050565b60006111d183836111f1565b60208301905092915050565b60006111e983836115c9565b905092915050565b6111fa81611951565b82525050565b61120981611951565b82525050565b600061121a826118d2565b611224818561190d565b935061122f836118b2565b8060005b8381101561126057815161124788826111c5565b9750611252836118f3565b925050600181019050611233565b5085935050505092915050565b6000611278826118dd565b611282818561191e565b935083602082028501611294856118c2565b8060005b858110156112d057848403895281516112b185826111dd565b94506112bc83611900565b925060208a01995050600181019050611298565b50829750879550505050505092915050565b6112eb81611963565b82525050565b60006112fc826118e8565b611306818561192f565b93506113168185602086016119a8565b61131f816119dd565b840191505092915050565b6000611335826118e8565b61133f8185611940565b935061134f8185602086016119a8565b611358816119dd565b840191505092915050565b6000611370600d83611940565b91507f416c726561647920566f746564000000000000000000000000000000000000006000830152602082019050919050565b60006113b0600b83611940565b91507f4e6f74206120566f7465720000000000000000000000000000000000000000006000830152602082019050919050565b60006113f0601983611940565b91507f416c7265616479205265676973746572656420566f74657221000000000000006000830152602082019050919050565b6000611430601b83611940565b91507f4e6f7420612056616c69642043616e64696461746520476976656e00000000006000830152602082019050919050565b6000611470601383611940565b91507f416c726561647920612043616e646964617465000000000000000000000000006000830152602082019050919050565b60006114b0601c83611940565b91507f496e73756666696369656e742042616c616e636520746f20566f7465000000006000830152602082019050919050565b60006114f0601483611940565b91507f57726f6e6720466565732050726f7669646564210000000000000000000000006000830152602082019050919050565b6000611530601483611940565b91507f496e73756666696369656e742042616c616e63650000000000000000000000006000830152602082019050919050565b6000611570602783611940565b91507f43616e64696461746527732061646472657373202620696e64657820646f6e2760008301527f74206d61746368000000000000000000000000000000000000000000000000006020830152604082019050919050565b600060a08301600083015184820360008601526115e682826112f1565b9150506020830151848203602086015261160082826112f1565b915050604083015161161560408601826111f1565b506060830151848203606086015261162d828261120f565b9150506080830151611642608086018261164d565b508091505092915050565b6116568161198f565b82525050565b6116658161198f565b82525050565b60006020820190506116806000830184611200565b92915050565b600060208201905081810360008301526116a0818461126d565b905092915050565b60006020820190506116bd60008301846112e2565b92915050565b600060808201905081810360008301526116dd818761132a565b905081810360208301526116f1818661132a565b90506117006040830185611200565b61170d606083018461165c565b95945050505050565b6000602082019050818103600083015261172f81611363565b9050919050565b6000602082019050818103600083015261174f816113a3565b9050919050565b6000602082019050818103600083015261176f816113e3565b9050919050565b6000602082019050818103600083015261178f81611423565b9050919050565b600060208201905081810360008301526117af81611463565b9050919050565b600060208201905081810360008301526117cf816114a3565b9050919050565b600060208201905081810360008301526117ef816114e3565b9050919050565b6000602082019050818103600083015261180f81611523565b9050919050565b6000602082019050818103600083015261182f81611563565b9050919050565b600060208201905061184b600083018461165c565b92915050565b6000604051905081810181811067ffffffffffffffff82111715611878576118776119db565b5b8060405250919050565b600067ffffffffffffffff82111561189d5761189c6119db565b5b601f19601f8301169050602081019050919050565b6000819050602082019050919050565b6000819050602082019050919050565b600081519050919050565b600081519050919050565b600081519050919050565b6000602082019050919050565b6000602082019050919050565b600082825260208201905092915050565b600082825260208201905092915050565b600082825260208201905092915050565b600082825260208201905092915050565b600061195c8261196f565b9050919050565b60008115159050919050565b600073ffffffffffffffffffffffffffffffffffffffff82169050919050565b6000819050919050565b82818337600083830152505050565b60005b838110156119c65780820151818401526020810190506119ab565b838111156119d5576000848401525b50505050565bfe5b6000601f19601f8301169050919050565b6119f781611951565b8114611a0257600080fd5b50565b611a0e8161198f565b8114611a1957600080fd5b5056fea2646970667358221220b3940fb85b0b547cf70d660fa6cf971be72149fd7972719c3038d81f87c9337d64736f6c63430007060033",
  "immutableReferences": {},
  "source": "pragma solidity >=0.5 <0.8;\npragma experimental ABIEncoderV2;\n\ncontract eVoting {\n    \n    struct Candidate {\n        string name;\n        string party;\n        address accountAddress;\n        address[] voters;\n        uint votersCount;\n    }\n    \n    address public electionCommissioner;\n    \n    mapping(address=>bool) public totalVotersList;\n    mapping(address=>bool) public votedList;\n    \n    Candidate[] public candidatesList;\n    mapping(address=>bool) candidatesMap;\n    \n    uint public feesForCandidates;\n    uint public feesForVoters;\n    uint public totalVotersCount;\n    uint public totalVotesCount;\n    uint public totalCandidatesCount;\n\n     \n    modifier restrictVoting() {\n        require(msg.sender.balance!=0,\"Insufficient Balance\");\n        require(totalVotersList[msg.sender],\"Not a Voter\");\n        require(!votedList[msg.sender],\"Already Voted\");\n        require(msg.value == 0.9 ether,\"Insufficient Balance to Vote\");\n        _;\n    }\n    \n    constructor() {\n        electionCommissioner=msg.sender;\n        feesForCandidates=0.05 ether;\n        feesForVoters=0.9 ether;\n    }\n    \n    \n    function registerAsCandidate(string memory name, string memory party) public payable {\n        require(msg.value==feesForCandidates,\"Wrong Fees Provided!\");\n        require(!candidatesMap[msg.sender],\"Already a Candidate\");\n        address[] memory voters;\n        Candidate memory candidate=Candidate({\n            name:name,\n            party:party,\n            accountAddress:msg.sender,\n            voters:voters,\n            votersCount:0\n        });\n        totalCandidatesCount++;\n        candidatesList.push(candidate);\n        candidatesMap[msg.sender]=true;\n    }\n    \n    function registerAsVoter() public {\n        require(!totalVotersList[msg.sender],\"Already Registered Voter!\");\n        totalVotersCount++;\n        totalVotersList[msg.sender]=true;\n    }\n    \n    function getCandidates() public view returns(Candidate[] memory) {\n        return candidatesList;\n    }\n    \n   \n    function vote(address candidate, uint index) public payable restrictVoting {\n        require(candidatesMap[candidate],\"Not a Valid Candidate Given\");\n        require(candidatesList[index].accountAddress==candidate,\"Candidate's address & index don't match\");\n        candidatesList[index].votersCount++;\n        candidatesList[index].voters.push(msg.sender);\n        totalVotesCount++;\n        votedList[msg.sender]=true;\n    }\n    \n}",
  "sourcePath": "/Users/saarthak08/Documents/Projects/e-Voting/Blockchain-Backend/contracts/eVoting.sol",
  "compiler": {
    "name": "solc",
    "version": "0.7.6+commit.7338295f.Emscripten.clang"
  },
  "schemaVersion": "3.3.3",
  "updatedAt": "2021-01-03T15:55:13.432Z",
  "networkType": "ethereum",
  "devdoc": {
    "kind": "dev",
    "methods": {},
    "version": 1
  },
  "userdoc": {
    "kind": "user",
    "methods": {},
    "version": 1
  }
}