{
  "contractName": "eVoting",
  "abi": [
    {
      "inputs": [],
      "stateMutability": "nonpayable",
      "type": "constructor"
    },
    {
      "inputs": [
        {
          "internalType": "address",
          "name": "",
          "type": "address"
        }
      ],
      "name": "candidatesMap",
      "outputs": [
        {
          "internalType": "bool",
          "name": "",
          "type": "bool"
        }
      ],
      "stateMutability": "view",
      "type": "function",
      "constant": true
    },
    {
      "inputs": [],
      "name": "electionCommissioner",
      "outputs": [
        {
          "internalType": "address",
          "name": "",
          "type": "address"
        }
      ],
      "stateMutability": "view",
      "type": "function",
      "constant": true
    },
    {
      "inputs": [],
      "name": "feesForCandidates",
      "outputs": [
        {
          "internalType": "uint256",
          "name": "",
          "type": "uint256"
        }
      ],
      "stateMutability": "view",
      "type": "function",
      "constant": true
    },
    {
      "inputs": [],
      "name": "feesForVoters",
      "outputs": [
        {
          "internalType": "uint256",
          "name": "",
          "type": "uint256"
        }
      ],
      "stateMutability": "view",
      "type": "function",
      "constant": true
    },
    {
      "inputs": [],
      "name": "isVotingStarted",
      "outputs": [
        {
          "internalType": "bool",
          "name": "",
          "type": "bool"
        }
      ],
      "stateMutability": "view",
      "type": "function",
      "constant": true
    },
    {
      "inputs": [],
      "name": "totalCandidatesCount",
      "outputs": [
        {
          "internalType": "uint256",
          "name": "",
          "type": "uint256"
        }
      ],
      "stateMutability": "view",
      "type": "function",
      "constant": true
    },
    {
      "inputs": [],
      "name": "totalVotersCount",
      "outputs": [
        {
          "internalType": "uint256",
          "name": "",
          "type": "uint256"
        }
      ],
      "stateMutability": "view",
      "type": "function",
      "constant": true
    },
    {
      "inputs": [
        {
          "internalType": "address",
          "name": "",
          "type": "address"
        }
      ],
      "name": "totalVotersList",
      "outputs": [
        {
          "internalType": "bool",
          "name": "",
          "type": "bool"
        }
      ],
      "stateMutability": "view",
      "type": "function",
      "constant": true
    },
    {
      "inputs": [],
      "name": "totalVotesCount",
      "outputs": [
        {
          "internalType": "uint256",
          "name": "",
          "type": "uint256"
        }
      ],
      "stateMutability": "view",
      "type": "function",
      "constant": true
    },
    {
      "inputs": [
        {
          "internalType": "address",
          "name": "",
          "type": "address"
        }
      ],
      "name": "votedList",
      "outputs": [
        {
          "internalType": "bool",
          "name": "",
          "type": "bool"
        }
      ],
      "stateMutability": "view",
      "type": "function",
      "constant": true
    },
    {
      "inputs": [],
      "name": "startVoting",
      "outputs": [],
      "stateMutability": "nonpayable",
      "type": "function"
    },
    {
      "inputs": [],
      "name": "stopVoting",
      "outputs": [],
      "stateMutability": "nonpayable",
      "type": "function"
    },
    {
      "inputs": [],
      "name": "registerAsCandidate",
      "outputs": [],
      "stateMutability": "payable",
      "type": "function",
      "payable": true
    },
    {
      "inputs": [],
      "name": "registerAsVoter",
      "outputs": [],
      "stateMutability": "nonpayable",
      "type": "function"
    },
    {
      "inputs": [],
      "name": "getCandidates",
      "outputs": [
        {
          "components": [
            {
              "internalType": "address",
              "name": "accountAddress",
              "type": "address"
            },
            {
              "internalType": "address[]",
              "name": "voters",
              "type": "address[]"
            },
            {
              "internalType": "uint256",
              "name": "votersCount",
              "type": "uint256"
            }
          ],
          "internalType": "struct eVoting.Candidate[]",
          "name": "",
          "type": "tuple[]"
        }
      ],
      "stateMutability": "view",
      "type": "function",
      "constant": true
    },
    {
      "inputs": [
        {
          "internalType": "address",
          "name": "candidate",
          "type": "address"
        },
        {
          "internalType": "uint256",
          "name": "index",
          "type": "uint256"
        }
      ],
      "name": "vote",
      "outputs": [],
      "stateMutability": "payable",
      "type": "function",
      "payable": true
    }
  ],
  "bytecode": "0x608060405234801561001057600080fd5b50336000806101000a81548173ffffffffffffffffffffffffffffffffffffffff021916908373ffffffffffffffffffffffffffffffffffffffff16021790555066b1a2bc2ec50000600581905550670b1a2bc2ec5000006006819055506000600a60006101000a81548160ff021916908315150217905550611813806100986000396000f3fe6080604052600436106100f35760003560e01c80635f74bbde1161008a578063b96ee0dc11610059578063b96ee0dc146102c8578063f09d50be14610305578063f396d67414610330578063fab2f86b1461035b576100f3565b80635f74bbde1461024e578063786686581461026a5780638f473b5a14610281578063a5ea5627146102be576100f3565b806325709fa6116100c657806325709fa6146101905780633fe46043146101bb578063451891a6146101e65780635f49cf9c14610211576100f3565b806306a49fce146100f857806318108d08146101235780631bdbb2ab1461014e5780631ec6b60a14610179575b600080fd5b34801561010457600080fd5b5061010d610372565b60405161011a919061150c565b60405180910390f35b34801561012f57600080fd5b506101386104bf565b60405161014591906116c9565b60405180910390f35b34801561015a57600080fd5b506101636104c5565b60405161017091906114f1565b60405180910390f35b34801561018557600080fd5b5061018e6104e9565b005b34801561019c57600080fd5b506101a5610594565b6040516101b2919061152e565b60405180910390f35b3480156101c757600080fd5b506101d06105a7565b6040516101dd91906116c9565b60405180910390f35b3480156101f257600080fd5b506101fb6105ad565b60405161020891906116c9565b60405180910390f35b34801561021d57600080fd5b5061023860048036038101906102339190610fa6565b6105b3565b604051610245919061152e565b60405180910390f35b61026860048036038101906102639190610fcf565b6105d3565b005b34801561027657600080fd5b5061027f610a33565b005b34801561028d57600080fd5b506102a860048036038101906102a39190610fa6565b610b7b565b6040516102b5919061152e565b60405180910390f35b6102c6610b9b565b005b3480156102d457600080fd5b506102ef60048036038101906102ea9190610fa6565b610dfe565b6040516102fc919061152e565b60405180910390f35b34801561031157600080fd5b5061031a610e1e565b60405161032791906116c9565b60405180910390f35b34801561033c57600080fd5b50610345610e24565b60405161035291906116c9565b60405180910390f35b34801561036757600080fd5b50610370610e2a565b005b60606003805480602002602001604051908101604052809291908181526020016000905b828210156104b657838290600052602060002090600302016040518060600160405290816000820160009054906101000a900473ffffffffffffffffffffffffffffffffffffffff1673ffffffffffffffffffffffffffffffffffffffff1673ffffffffffffffffffffffffffffffffffffffff1681526020016001820180548060200260200160405190810160405280929190818152602001828054801561049457602002820191906000526020600020905b8160009054906101000a900473ffffffffffffffffffffffffffffffffffffffff1673ffffffffffffffffffffffffffffffffffffffff168152602001906001019080831161044a575b5050505050815260200160028201548152505081526020019060010190610396565b50505050905090565b60055481565b60008054906101000a900473ffffffffffffffffffffffffffffffffffffffff1681565b60008054906101000a900473ffffffffffffffffffffffffffffffffffffffff1673ffffffffffffffffffffffffffffffffffffffff163373ffffffffffffffffffffffffffffffffffffffff1614610577576040517f08c379a000000000000000000000000000000000000000000000000000000000815260040161056e906115a9565b60405180910390fd5b6001600a60006101000a81548160ff021916908315150217905550565b600a60009054906101000a900460ff1681565b60075481565b60095481565b60026020528060005260406000206000915054906101000a900460ff1681565b600a60009054906101000a900460ff16610622576040517f08c379a000000000000000000000000000000000000000000000000000000000815260040161061990611649565b60405180910390fd5b60003373ffffffffffffffffffffffffffffffffffffffff1631141561067d576040517f08c379a000000000000000000000000000000000000000000000000000000000815260040161067490611689565b60405180910390fd5b600160003373ffffffffffffffffffffffffffffffffffffffff1673ffffffffffffffffffffffffffffffffffffffff16815260200190815260200160002060009054906101000a900460ff16610709576040517f08c379a000000000000000000000000000000000000000000000000000000000815260040161070090611589565b60405180910390fd5b600260003373ffffffffffffffffffffffffffffffffffffffff1673ffffffffffffffffffffffffffffffffffffffff16815260200190815260200160002060009054906101000a900460ff1615610796576040517f08c379a000000000000000000000000000000000000000000000000000000000815260040161078d90611569565b60405180910390fd5b670b1a2bc2ec50000034146107e0576040517f08c379a00000000000000000000000000000000000000000000000000000000081526004016107d790611629565b60405180910390fd5b600460008373ffffffffffffffffffffffffffffffffffffffff1673ffffffffffffffffffffffffffffffffffffffff16815260200190815260200160002060009054906101000a900460ff1661086c576040517f08c379a0000000000000000000000000000000000000000000000000000000008152600401610863906115e9565b60405180910390fd5b8173ffffffffffffffffffffffffffffffffffffffff166003828154811061089057fe5b906000526020600020906003020160000160009054906101000a900473ffffffffffffffffffffffffffffffffffffffff1673ffffffffffffffffffffffffffffffffffffffff1614610918576040517f08c379a000000000000000000000000000000000000000000000000000000000815260040161090f906116a9565b60405180910390fd5b6003818154811061092557fe5b9060005260206000209060030201600201600081548092919060010191905055506003818154811061095357fe5b9060005260206000209060030201600101339080600181540180825580915050600190039060005260206000200160009091909190916101000a81548173ffffffffffffffffffffffffffffffffffffffff021916908373ffffffffffffffffffffffffffffffffffffffff1602179055506008600081548092919060010191905055506001600260003373ffffffffffffffffffffffffffffffffffffffff1673ffffffffffffffffffffffffffffffffffffffff16815260200190815260200160002060006101000a81548160ff0219169083151502179055505050565b600a60009054906101000a900460ff1615610a83576040517f08c379a0000000000000000000000000000000000000000000000000000000008152600401610a7a90611549565b60405180910390fd5b600160003373ffffffffffffffffffffffffffffffffffffffff1673ffffffffffffffffffffffffffffffffffffffff16815260200190815260200160002060009054906101000a900460ff1615610b10576040517f08c379a0000000000000000000000000000000000000000000000000000000008152600401610b07906115c9565b60405180910390fd5b60076000815480929190600101919050555060018060003373ffffffffffffffffffffffffffffffffffffffff1673ffffffffffffffffffffffffffffffffffffffff16815260200190815260200160002060006101000a81548160ff021916908315150217905550565b60046020528060005260406000206000915054906101000a900460ff1681565b600a60009054906101000a900460ff1615610beb576040517f08c379a0000000000000000000000000000000000000000000000000000000008152600401610be290611549565b60405180910390fd5b6005543414610c2f576040517f08c379a0000000000000000000000000000000000000000000000000000000008152600401610c2690611669565b60405180910390fd5b600460003373ffffffffffffffffffffffffffffffffffffffff1673ffffffffffffffffffffffffffffffffffffffff16815260200190815260200160002060009054906101000a900460ff1615610cbc576040517f08c379a0000000000000000000000000000000000000000000000000000000008152600401610cb390611609565b60405180910390fd5b6060600060405180606001604052803373ffffffffffffffffffffffffffffffffffffffff16815260200183815260200160008152509050600960008154809291906001019190505550600381908060018154018082558091505060019003906000526020600020906003020160009091909190915060008201518160000160006101000a81548173ffffffffffffffffffffffffffffffffffffffff021916908373ffffffffffffffffffffffffffffffffffffffff1602179055506020820151816001019080519060200190610d95929190610ed5565b506040820151816002015550506001600460003373ffffffffffffffffffffffffffffffffffffffff1673ffffffffffffffffffffffffffffffffffffffff16815260200190815260200160002060006101000a81548160ff0219169083151502179055505050565b60016020528060005260406000206000915054906101000a900460ff1681565b60065481565b60085481565b60008054906101000a900473ffffffffffffffffffffffffffffffffffffffff1673ffffffffffffffffffffffffffffffffffffffff163373ffffffffffffffffffffffffffffffffffffffff1614610eb8576040517f08c379a0000000000000000000000000000000000000000000000000000000008152600401610eaf906115a9565b60405180910390fd5b6000600a60006101000a81548160ff021916908315150217905550565b828054828255906000526020600020908101928215610f4e579160200282015b82811115610f4d5782518260006101000a81548173ffffffffffffffffffffffffffffffffffffffff021916908373ffffffffffffffffffffffffffffffffffffffff16021790555091602001919060010190610ef5565b5b509050610f5b9190610f5f565b5090565b5b80821115610f78576000816000905550600101610f60565b5090565b600081359050610f8b816117af565b92915050565b600081359050610fa0816117c6565b92915050565b600060208284031215610fb857600080fd5b6000610fc684828501610f7c565b91505092915050565b60008060408385031215610fe257600080fd5b6000610ff085828601610f7c565b925050602061100185828601610f91565b9150509250929050565b60006110178383611037565b60208301905092915050565b600061102f8383611483565b905092915050565b61104081611767565b82525050565b61104f81611767565b82525050565b600061106082611704565b61106a8185611734565b9350611075836116e4565b8060005b838110156110a657815161108d888261100b565b97506110988361171a565b925050600181019050611079565b5085935050505092915050565b60006110be8261170f565b6110c88185611745565b9350836020820285016110da856116f4565b8060005b8581101561111657848403895281516110f78582611023565b945061110283611727565b925060208a019950506001810190506110de565b50829750879550505050505092915050565b61113181611779565b82525050565b6000611144602683611756565b91507f566f74696e6720616c72656164792073746172746564212043616e277420726560008301527f67697374657200000000000000000000000000000000000000000000000000006020830152604082019050919050565b60006111aa600d83611756565b91507f416c726561647920566f746564000000000000000000000000000000000000006000830152602082019050919050565b60006111ea600b83611756565b91507f4e6f74206120566f7465720000000000000000000000000000000000000000006000830152602082019050919050565b600061122a600c83611756565b91507f556e617574686f72697a656400000000000000000000000000000000000000006000830152602082019050919050565b600061126a601983611756565b91507f416c7265616479205265676973746572656420566f74657221000000000000006000830152602082019050919050565b60006112aa601b83611756565b91507f4e6f7420612056616c69642043616e64696461746520476976656e00000000006000830152602082019050919050565b60006112ea601383611756565b91507f416c726561647920612043616e646964617465000000000000000000000000006000830152602082019050919050565b600061132a601c83611756565b91507f496e73756666696369656e742042616c616e636520746f20566f7465000000006000830152602082019050919050565b600061136a601883611756565b91507f566f74696e672069736e277420737461727465642079657400000000000000006000830152602082019050919050565b60006113aa601483611756565b91507f57726f6e6720466565732050726f7669646564210000000000000000000000006000830152602082019050919050565b60006113ea601483611756565b91507f496e73756666696369656e742042616c616e63650000000000000000000000006000830152602082019050919050565b600061142a602783611756565b91507f43616e64696461746527732061646472657373202620696e64657820646f6e2760008301527f74206d61746368000000000000000000000000000000000000000000000000006020830152604082019050919050565b600060608301600083015161149b6000860182611037565b50602083015184820360208601526114b38282611055565b91505060408301516114c860408601826114d3565b508091505092915050565b6114dc816117a5565b82525050565b6114eb816117a5565b82525050565b60006020820190506115066000830184611046565b92915050565b6000602082019050818103600083015261152681846110b3565b905092915050565b60006020820190506115436000830184611128565b92915050565b6000602082019050818103600083015261156281611137565b9050919050565b600060208201905081810360008301526115828161119d565b9050919050565b600060208201905081810360008301526115a2816111dd565b9050919050565b600060208201905081810360008301526115c28161121d565b9050919050565b600060208201905081810360008301526115e28161125d565b9050919050565b600060208201905081810360008301526116028161129d565b9050919050565b60006020820190508181036000830152611622816112dd565b9050919050565b600060208201905081810360008301526116428161131d565b9050919050565b600060208201905081810360008301526116628161135d565b9050919050565b600060208201905081810360008301526116828161139d565b9050919050565b600060208201905081810360008301526116a2816113dd565b9050919050565b600060208201905081810360008301526116c28161141d565b9050919050565b60006020820190506116de60008301846114e2565b92915050565b6000819050602082019050919050565b6000819050602082019050919050565b600081519050919050565b600081519050919050565b6000602082019050919050565b6000602082019050919050565b600082825260208201905092915050565b600082825260208201905092915050565b600082825260208201905092915050565b600061177282611785565b9050919050565b60008115159050919050565b600073ffffffffffffffffffffffffffffffffffffffff82169050919050565b6000819050919050565b6117b881611767565b81146117c357600080fd5b50565b6117cf816117a5565b81146117da57600080fd5b5056fea2646970667358221220413db29fbc967237425a7c71e34dc3213ab77d45e0aaa619bee886ee57421cf364736f6c63430007060033",
  "immutableReferences": {},
  "source": "//SPDX-License-Identifier: UNLICENSED\npragma solidity >=0.5.0 <0.8.0;\npragma experimental ABIEncoderV2;\n\ncontract eVoting {\n    struct Candidate {\n        address accountAddress;\n        address[] voters;\n        uint256 votersCount;\n    }\n\n    address public electionCommissioner;\n\n    mapping(address => bool) public totalVotersList;\n    mapping(address => bool) public votedList;\n\n    Candidate[] candidatesList;\n    mapping(address => bool) public candidatesMap;\n\n    uint256 public feesForCandidates;\n    uint256 public feesForVoters;\n    uint256 public totalVotersCount;\n    uint256 public totalVotesCount;\n    uint256 public totalCandidatesCount;\n    bool public isVotingStarted;\n\n    modifier restrictVoting() {\n        require(isVotingStarted, \"Voting isn't started yet\");\n        require(msg.sender.balance != 0, \"Insufficient Balance\");\n        require(totalVotersList[msg.sender], \"Not a Voter\");\n        require(!votedList[msg.sender], \"Already Voted\");\n        require(msg.value == 0.8 ether, \"Insufficient Balance to Vote\");\n        _;\n    }\n\n    constructor() {\n        electionCommissioner = msg.sender;\n        feesForCandidates = 0.05 ether;\n        feesForVoters = 0.8 ether;\n        isVotingStarted = false;\n    }\n\n    function startVoting() public {\n        require(msg.sender == electionCommissioner, \"Unauthorized\");\n        isVotingStarted = true;\n    }\n\n    function stopVoting() public {\n        require(msg.sender == electionCommissioner, \"Unauthorized\");\n        isVotingStarted = false;\n    }\n\n    function registerAsCandidate() public payable {\n        require(!isVotingStarted, \"Voting already started! Can't register\");\n        require(msg.value == feesForCandidates, \"Wrong Fees Provided!\");\n        require(!candidatesMap[msg.sender], \"Already a Candidate\");\n        address[] memory voters;\n        Candidate memory candidate =\n            Candidate({\n                accountAddress: msg.sender,\n                voters: voters,\n                votersCount: 0\n            });\n        totalCandidatesCount++;\n        candidatesList.push(candidate);\n        candidatesMap[msg.sender] = true;\n    }\n\n    function registerAsVoter() public {\n        require(!isVotingStarted, \"Voting already started! Can't register\");\n        require(!totalVotersList[msg.sender], \"Already Registered Voter!\");\n        totalVotersCount++;\n        totalVotersList[msg.sender] = true;\n    }\n\n    function getCandidates() public view returns (Candidate[] memory) {\n        return candidatesList;\n    }\n\n    function vote(address candidate, uint256 index)\n        public\n        payable\n        restrictVoting\n    {\n        require(candidatesMap[candidate], \"Not a Valid Candidate Given\");\n        require(\n            candidatesList[index].accountAddress == candidate,\n            \"Candidate's address & index don't match\"\n        );\n        candidatesList[index].votersCount++;\n        candidatesList[index].voters.push(msg.sender);\n        totalVotesCount++;\n        votedList[msg.sender] = true;\n    }\n}\n",
  "sourcePath": "/home/saarthak08/Projects/e-Voting/Blockchain-Backend/contracts/eVoting.sol",
  "compiler": {
    "name": "solc",
    "version": "0.7.6+commit.7338295f.Emscripten.clang"
  },
  "schemaVersion": "3.4.13",
  "updatedAt": "2023-05-14T09:42:18.451Z",
  "networkType": "ethereum",
  "devdoc": {
    "kind": "dev",
    "methods": {},
    "version": 1
  },
  "userdoc": {
    "kind": "user",
    "methods": {},
    "version": 1
  }
}