{
  "contractName": "eVoting",
  "abi": [
    {
      "inputs": [],
      "stateMutability": "nonpayable",
      "type": "constructor"
    },
    {
      "inputs": [
        {
          "internalType": "address",
          "name": "",
          "type": "address"
        }
      ],
      "name": "candidatesMap",
      "outputs": [
        {
          "internalType": "bool",
          "name": "",
          "type": "bool"
        }
      ],
      "stateMutability": "view",
      "type": "function",
      "constant": true
    },
    {
      "inputs": [],
      "name": "electionCommissioner",
      "outputs": [
        {
          "internalType": "address",
          "name": "",
          "type": "address"
        }
      ],
      "stateMutability": "view",
      "type": "function",
      "constant": true
    },
    {
      "inputs": [],
      "name": "feesForCandidates",
      "outputs": [
        {
          "internalType": "uint256",
          "name": "",
          "type": "uint256"
        }
      ],
      "stateMutability": "view",
      "type": "function",
      "constant": true
    },
    {
      "inputs": [],
      "name": "feesForVoters",
      "outputs": [
        {
          "internalType": "uint256",
          "name": "",
          "type": "uint256"
        }
      ],
      "stateMutability": "view",
      "type": "function",
      "constant": true
    },
    {
      "inputs": [],
      "name": "totalCandidatesCount",
      "outputs": [
        {
          "internalType": "uint256",
          "name": "",
          "type": "uint256"
        }
      ],
      "stateMutability": "view",
      "type": "function",
      "constant": true
    },
    {
      "inputs": [],
      "name": "totalVotersCount",
      "outputs": [
        {
          "internalType": "uint256",
          "name": "",
          "type": "uint256"
        }
      ],
      "stateMutability": "view",
      "type": "function",
      "constant": true
    },
    {
      "inputs": [
        {
          "internalType": "address",
          "name": "",
          "type": "address"
        }
      ],
      "name": "totalVotersList",
      "outputs": [
        {
          "internalType": "bool",
          "name": "",
          "type": "bool"
        }
      ],
      "stateMutability": "view",
      "type": "function",
      "constant": true
    },
    {
      "inputs": [],
      "name": "totalVotesCount",
      "outputs": [
        {
          "internalType": "uint256",
          "name": "",
          "type": "uint256"
        }
      ],
      "stateMutability": "view",
      "type": "function",
      "constant": true
    },
    {
      "inputs": [
        {
          "internalType": "address",
          "name": "",
          "type": "address"
        }
      ],
      "name": "votedList",
      "outputs": [
        {
          "internalType": "bool",
          "name": "",
          "type": "bool"
        }
      ],
      "stateMutability": "view",
      "type": "function",
      "constant": true
    },
    {
      "inputs": [],
      "name": "registerAsCandidate",
      "outputs": [],
      "stateMutability": "payable",
      "type": "function",
      "payable": true
    },
    {
      "inputs": [],
      "name": "registerAsVoter",
      "outputs": [],
      "stateMutability": "nonpayable",
      "type": "function"
    },
    {
      "inputs": [],
      "name": "getCandidates",
      "outputs": [
        {
          "components": [
            {
              "internalType": "address",
              "name": "accountAddress",
              "type": "address"
            },
            {
              "internalType": "address[]",
              "name": "voters",
              "type": "address[]"
            },
            {
              "internalType": "uint256",
              "name": "votersCount",
              "type": "uint256"
            }
          ],
          "internalType": "struct eVoting.Candidate[]",
          "name": "",
          "type": "tuple[]"
        }
      ],
      "stateMutability": "view",
      "type": "function",
      "constant": true
    },
    {
      "inputs": [
        {
          "internalType": "address",
          "name": "candidate",
          "type": "address"
        },
        {
          "internalType": "uint256",
          "name": "index",
          "type": "uint256"
        }
      ],
      "name": "vote",
      "outputs": [],
      "stateMutability": "payable",
      "type": "function",
      "payable": true
    }
  ],
  "bytecode": "0x608060405234801561001057600080fd5b50336000806101000a81548173ffffffffffffffffffffffffffffffffffffffff021916908373ffffffffffffffffffffffffffffffffffffffff16021790555066b1a2bc2ec50000600581905550670b1a2bc2ec5000006006819055506113eb8061007d6000396000f3fe6080604052600436106100c25760003560e01c80635f74bbde1161007f578063a5ea562711610059578063a5ea56271461024b578063b96ee0dc14610255578063f09d50be14610292578063f396d674146102bd576100c2565b80635f74bbde146101db57806378668658146101f75780638f473b5a1461020e576100c2565b806306a49fce146100c757806318108d08146100f25780631bdbb2ab1461011d5780633fe4604314610148578063451891a6146101735780635f49cf9c1461019e575b600080fd5b3480156100d357600080fd5b506100dc6102e8565b6040516100e99190611144565b60405180910390f35b3480156100fe57600080fd5b50610107610435565b60405161011491906112a1565b60405180910390f35b34801561012957600080fd5b5061013261043b565b60405161013f9190611129565b60405180910390f35b34801561015457600080fd5b5061015d61045f565b60405161016a91906112a1565b60405180910390f35b34801561017f57600080fd5b50610188610465565b60405161019591906112a1565b60405180910390f35b3480156101aa57600080fd5b506101c560048036038101906101c09190610cc4565b61046b565b6040516101d29190611166565b60405180910390f35b6101f560048036038101906101f09190610ced565b61048b565b005b34801561020357600080fd5b5061020c61089c565b005b34801561021a57600080fd5b5061023560048036038101906102309190610cc4565b610994565b6040516102429190611166565b60405180910390f35b6102536109b4565b005b34801561026157600080fd5b5061027c60048036038101906102779190610cc4565b610bc7565b6040516102899190611166565b60405180910390f35b34801561029e57600080fd5b506102a7610be7565b6040516102b491906112a1565b60405180910390f35b3480156102c957600080fd5b506102d2610bed565b6040516102df91906112a1565b60405180910390f35b60606003805480602002602001604051908101604052809291908181526020016000905b8282101561042c57838290600052602060002090600302016040518060600160405290816000820160009054906101000a900473ffffffffffffffffffffffffffffffffffffffff1673ffffffffffffffffffffffffffffffffffffffff1673ffffffffffffffffffffffffffffffffffffffff1681526020016001820180548060200260200160405190810160405280929190818152602001828054801561040a57602002820191906000526020600020905b8160009054906101000a900473ffffffffffffffffffffffffffffffffffffffff1673ffffffffffffffffffffffffffffffffffffffff16815260200190600101908083116103c0575b505050505081526020016002820154815250508152602001906001019061030c565b50505050905090565b60055481565b60008054906101000a900473ffffffffffffffffffffffffffffffffffffffff1681565b60075481565b60095481565b60026020528060005260406000206000915054906101000a900460ff1681565b60003373ffffffffffffffffffffffffffffffffffffffff163114156104e6576040517f08c379a00000000000000000000000000000000000000000000000000000000081526004016104dd90611261565b60405180910390fd5b600160003373ffffffffffffffffffffffffffffffffffffffff1673ffffffffffffffffffffffffffffffffffffffff16815260200190815260200160002060009054906101000a900460ff16610572576040517f08c379a0000000000000000000000000000000000000000000000000000000008152600401610569906111a1565b60405180910390fd5b600260003373ffffffffffffffffffffffffffffffffffffffff1673ffffffffffffffffffffffffffffffffffffffff16815260200190815260200160002060009054906101000a900460ff16156105ff576040517f08c379a00000000000000000000000000000000000000000000000000000000081526004016105f690611181565b60405180910390fd5b670b1a2bc2ec5000003414610649576040517f08c379a000000000000000000000000000000000000000000000000000000000815260040161064090611221565b60405180910390fd5b600460008373ffffffffffffffffffffffffffffffffffffffff1673ffffffffffffffffffffffffffffffffffffffff16815260200190815260200160002060009054906101000a900460ff166106d5576040517f08c379a00000000000000000000000000000000000000000000000000000000081526004016106cc906111e1565b60405180910390fd5b8173ffffffffffffffffffffffffffffffffffffffff16600382815481106106f957fe5b906000526020600020906003020160000160009054906101000a900473ffffffffffffffffffffffffffffffffffffffff1673ffffffffffffffffffffffffffffffffffffffff1614610781576040517f08c379a000000000000000000000000000000000000000000000000000000000815260040161077890611281565b60405180910390fd5b6003818154811061078e57fe5b906000526020600020906003020160020160008154809291906001019190505550600381815481106107bc57fe5b9060005260206000209060030201600101339080600181540180825580915050600190039060005260206000200160009091909190916101000a81548173ffffffffffffffffffffffffffffffffffffffff021916908373ffffffffffffffffffffffffffffffffffffffff1602179055506008600081548092919060010191905055506001600260003373ffffffffffffffffffffffffffffffffffffffff1673ffffffffffffffffffffffffffffffffffffffff16815260200190815260200160002060006101000a81548160ff0219169083151502179055505050565b600160003373ffffffffffffffffffffffffffffffffffffffff1673ffffffffffffffffffffffffffffffffffffffff16815260200190815260200160002060009054906101000a900460ff1615610929576040517f08c379a0000000000000000000000000000000000000000000000000000000008152600401610920906111c1565b60405180910390fd5b60076000815480929190600101919050555060018060003373ffffffffffffffffffffffffffffffffffffffff1673ffffffffffffffffffffffffffffffffffffffff16815260200190815260200160002060006101000a81548160ff021916908315150217905550565b60046020528060005260406000206000915054906101000a900460ff1681565b60055434146109f8576040517f08c379a00000000000000000000000000000000000000000000000000000000081526004016109ef90611241565b60405180910390fd5b600460003373ffffffffffffffffffffffffffffffffffffffff1673ffffffffffffffffffffffffffffffffffffffff16815260200190815260200160002060009054906101000a900460ff1615610a85576040517f08c379a0000000000000000000000000000000000000000000000000000000008152600401610a7c90611201565b60405180910390fd5b6060600060405180606001604052803373ffffffffffffffffffffffffffffffffffffffff16815260200183815260200160008152509050600960008154809291906001019190505550600381908060018154018082558091505060019003906000526020600020906003020160009091909190915060008201518160000160006101000a81548173ffffffffffffffffffffffffffffffffffffffff021916908373ffffffffffffffffffffffffffffffffffffffff1602179055506020820151816001019080519060200190610b5e929190610bf3565b506040820151816002015550506001600460003373ffffffffffffffffffffffffffffffffffffffff1673ffffffffffffffffffffffffffffffffffffffff16815260200190815260200160002060006101000a81548160ff0219169083151502179055505050565b60016020528060005260406000206000915054906101000a900460ff1681565b60065481565b60085481565b828054828255906000526020600020908101928215610c6c579160200282015b82811115610c6b5782518260006101000a81548173ffffffffffffffffffffffffffffffffffffffff021916908373ffffffffffffffffffffffffffffffffffffffff16021790555091602001919060010190610c13565b5b509050610c799190610c7d565b5090565b5b80821115610c96576000816000905550600101610c7e565b5090565b600081359050610ca981611387565b92915050565b600081359050610cbe8161139e565b92915050565b600060208284031215610cd657600080fd5b6000610ce484828501610c9a565b91505092915050565b60008060408385031215610d0057600080fd5b6000610d0e85828601610c9a565b9250506020610d1f85828601610caf565b9150509250929050565b6000610d358383610d55565b60208301905092915050565b6000610d4d83836110bb565b905092915050565b610d5e8161133f565b82525050565b610d6d8161133f565b82525050565b6000610d7e826112dc565b610d88818561130c565b9350610d93836112bc565b8060005b83811015610dc4578151610dab8882610d29565b9750610db6836112f2565b925050600181019050610d97565b5085935050505092915050565b6000610ddc826112e7565b610de6818561131d565b935083602082028501610df8856112cc565b8060005b85811015610e345784840389528151610e158582610d41565b9450610e20836112ff565b925060208a01995050600181019050610dfc565b50829750879550505050505092915050565b610e4f81611351565b82525050565b6000610e62600d8361132e565b91507f416c726561647920566f746564000000000000000000000000000000000000006000830152602082019050919050565b6000610ea2600b8361132e565b91507f4e6f74206120566f7465720000000000000000000000000000000000000000006000830152602082019050919050565b6000610ee260198361132e565b91507f416c7265616479205265676973746572656420566f74657221000000000000006000830152602082019050919050565b6000610f22601b8361132e565b91507f4e6f7420612056616c69642043616e64696461746520476976656e00000000006000830152602082019050919050565b6000610f6260138361132e565b91507f416c726561647920612043616e646964617465000000000000000000000000006000830152602082019050919050565b6000610fa2601c8361132e565b91507f496e73756666696369656e742042616c616e636520746f20566f7465000000006000830152602082019050919050565b6000610fe260148361132e565b91507f57726f6e6720466565732050726f7669646564210000000000000000000000006000830152602082019050919050565b600061102260148361132e565b91507f496e73756666696369656e742042616c616e63650000000000000000000000006000830152602082019050919050565b600061106260278361132e565b91507f43616e64696461746527732061646472657373202620696e64657820646f6e2760008301527f74206d61746368000000000000000000000000000000000000000000000000006020830152604082019050919050565b60006060830160008301516110d36000860182610d55565b50602083015184820360208601526110eb8282610d73565b9150506040830151611100604086018261110b565b508091505092915050565b6111148161137d565b82525050565b6111238161137d565b82525050565b600060208201905061113e6000830184610d64565b92915050565b6000602082019050818103600083015261115e8184610dd1565b905092915050565b600060208201905061117b6000830184610e46565b92915050565b6000602082019050818103600083015261119a81610e55565b9050919050565b600060208201905081810360008301526111ba81610e95565b9050919050565b600060208201905081810360008301526111da81610ed5565b9050919050565b600060208201905081810360008301526111fa81610f15565b9050919050565b6000602082019050818103600083015261121a81610f55565b9050919050565b6000602082019050818103600083015261123a81610f95565b9050919050565b6000602082019050818103600083015261125a81610fd5565b9050919050565b6000602082019050818103600083015261127a81611015565b9050919050565b6000602082019050818103600083015261129a81611055565b9050919050565b60006020820190506112b6600083018461111a565b92915050565b6000819050602082019050919050565b6000819050602082019050919050565b600081519050919050565b600081519050919050565b6000602082019050919050565b6000602082019050919050565b600082825260208201905092915050565b600082825260208201905092915050565b600082825260208201905092915050565b600061134a8261135d565b9050919050565b60008115159050919050565b600073ffffffffffffffffffffffffffffffffffffffff82169050919050565b6000819050919050565b6113908161133f565b811461139b57600080fd5b50565b6113a78161137d565b81146113b257600080fd5b5056fea264697066735822122055a8320c4f525c9f1070d735d25c3616d3424b47916f0027251eefb31eb5461e64736f6c63430007060033",
  "immutableReferences": {},
  "source": "pragma solidity >=0.5.0 <0.8.0;\npragma experimental ABIEncoderV2;\n\ncontract eVoting {\n    struct Candidate {\n        address accountAddress;\n        address[] voters;\n        uint256 votersCount;\n    }\n\n    address public electionCommissioner;\n\n    mapping(address => bool) public totalVotersList;\n    mapping(address => bool) public votedList;\n\n    Candidate[] candidatesList;\n    mapping(address => bool) public candidatesMap;\n\n    uint256 public feesForCandidates;\n    uint256 public feesForVoters;\n    uint256 public totalVotersCount;\n    uint256 public totalVotesCount;\n    uint256 public totalCandidatesCount;\n\n    modifier restrictVoting() {\n        require(msg.sender.balance != 0, \"Insufficient Balance\");\n        require(totalVotersList[msg.sender], \"Not a Voter\");\n        require(!votedList[msg.sender], \"Already Voted\");\n        require(msg.value == 0.8 ether, \"Insufficient Balance to Vote\");\n        _;\n    }\n\n    constructor() {\n        electionCommissioner = msg.sender;\n        feesForCandidates = 0.05 ether;\n        feesForVoters = 0.8 ether;\n    }\n\n    function registerAsCandidate() public payable {\n        require(msg.value == feesForCandidates, \"Wrong Fees Provided!\");\n        require(!candidatesMap[msg.sender], \"Already a Candidate\");\n        address[] memory voters;\n        Candidate memory candidate =\n            Candidate({\n                accountAddress: msg.sender,\n                voters: voters,\n                votersCount: 0\n            });\n        totalCandidatesCount++;\n        candidatesList.push(candidate);\n        candidatesMap[msg.sender] = true;\n    }\n\n    function registerAsVoter() public {\n        require(!totalVotersList[msg.sender], \"Already Registered Voter!\");\n        totalVotersCount++;\n        totalVotersList[msg.sender] = true;\n    }\n\n    function getCandidates() public view returns (Candidate[] memory) {\n        return candidatesList;\n    }\n\n    function vote(address candidate, uint256 index)\n        public\n        payable\n        restrictVoting\n    {\n        require(candidatesMap[candidate], \"Not a Valid Candidate Given\");\n        require(\n            candidatesList[index].accountAddress == candidate,\n            \"Candidate's address & index don't match\"\n        );\n        candidatesList[index].votersCount++;\n        candidatesList[index].voters.push(msg.sender);\n        totalVotesCount++;\n        votedList[msg.sender] = true;\n    }\n}\n",
  "sourcePath": "/Users/saarthak08/Documents/Projects/e-Voting/Blockchain-Backend/contracts/eVoting.sol",
  "compiler": {
    "name": "solc",
    "version": "0.7.6+commit.7338295f.Emscripten.clang"
  },
  "schemaVersion": "3.4.1",
  "updatedAt": "2021-06-10T08:13:33.236Z",
  "networkType": "ethereum",
  "devdoc": {
    "kind": "dev",
    "methods": {},
    "version": 1
  },
  "userdoc": {
    "kind": "user",
    "methods": {},
    "version": 1
  }
}