{
  "contractName": "eVoting",
  "abi": [
    {
      "inputs": [],
      "stateMutability": "nonpayable",
      "type": "constructor"
    },
    {
      "inputs": [
        {
          "internalType": "address",
          "name": "",
          "type": "address"
        }
      ],
      "name": "candidatesMap",
      "outputs": [
        {
          "internalType": "bool",
          "name": "",
          "type": "bool"
        }
      ],
      "stateMutability": "view",
      "type": "function",
      "constant": true
    },
    {
      "inputs": [],
      "name": "electionCommissioner",
      "outputs": [
        {
          "internalType": "address",
          "name": "",
          "type": "address"
        }
      ],
      "stateMutability": "view",
      "type": "function",
      "constant": true
    },
    {
      "inputs": [],
      "name": "feesForCandidates",
      "outputs": [
        {
          "internalType": "uint256",
          "name": "",
          "type": "uint256"
        }
      ],
      "stateMutability": "view",
      "type": "function",
      "constant": true
    },
    {
      "inputs": [],
      "name": "feesForVoters",
      "outputs": [
        {
          "internalType": "uint256",
          "name": "",
          "type": "uint256"
        }
      ],
      "stateMutability": "view",
      "type": "function",
      "constant": true
    },
    {
      "inputs": [],
      "name": "totalCandidatesCount",
      "outputs": [
        {
          "internalType": "uint256",
          "name": "",
          "type": "uint256"
        }
      ],
      "stateMutability": "view",
      "type": "function",
      "constant": true
    },
    {
      "inputs": [],
      "name": "totalVotersCount",
      "outputs": [
        {
          "internalType": "uint256",
          "name": "",
          "type": "uint256"
        }
      ],
      "stateMutability": "view",
      "type": "function",
      "constant": true
    },
    {
      "inputs": [
        {
          "internalType": "address",
          "name": "",
          "type": "address"
        }
      ],
      "name": "totalVotersList",
      "outputs": [
        {
          "internalType": "bool",
          "name": "",
          "type": "bool"
        }
      ],
      "stateMutability": "view",
      "type": "function",
      "constant": true
    },
    {
      "inputs": [],
      "name": "totalVotesCount",
      "outputs": [
        {
          "internalType": "uint256",
          "name": "",
          "type": "uint256"
        }
      ],
      "stateMutability": "view",
      "type": "function",
      "constant": true
    },
    {
      "inputs": [
        {
          "internalType": "address",
          "name": "",
          "type": "address"
        }
      ],
      "name": "votedList",
      "outputs": [
        {
          "internalType": "bool",
          "name": "",
          "type": "bool"
        }
      ],
      "stateMutability": "view",
      "type": "function",
      "constant": true
    },
    {
      "inputs": [
        {
          "internalType": "string",
          "name": "name",
          "type": "string"
        },
        {
          "internalType": "string",
          "name": "party",
          "type": "string"
        }
      ],
      "name": "registerAsCandidate",
      "outputs": [],
      "stateMutability": "payable",
      "type": "function",
      "payable": true
    },
    {
      "inputs": [],
      "name": "registerAsVoter",
      "outputs": [],
      "stateMutability": "nonpayable",
      "type": "function"
    },
    {
      "inputs": [],
      "name": "getCandidates",
      "outputs": [
        {
          "components": [
            {
              "internalType": "string",
              "name": "name",
              "type": "string"
            },
            {
              "internalType": "string",
              "name": "party",
              "type": "string"
            },
            {
              "internalType": "address",
              "name": "accountAddress",
              "type": "address"
            },
            {
              "internalType": "address[]",
              "name": "voters",
              "type": "address[]"
            },
            {
              "internalType": "uint256",
              "name": "votersCount",
              "type": "uint256"
            }
          ],
          "internalType": "struct eVoting.Candidate[]",
          "name": "",
          "type": "tuple[]"
        }
      ],
      "stateMutability": "view",
      "type": "function",
      "constant": true
    },
    {
      "inputs": [
        {
          "internalType": "address",
          "name": "candidate",
          "type": "address"
        },
        {
          "internalType": "uint256",
          "name": "index",
          "type": "uint256"
        }
      ],
      "name": "vote",
      "outputs": [],
      "stateMutability": "payable",
      "type": "function",
      "payable": true
    }
  ],
  "bytecode": "0x608060405234801561001057600080fd5b50336000806101000a81548173ffffffffffffffffffffffffffffffffffffffff021916908373ffffffffffffffffffffffffffffffffffffffff16021790555066b1a2bc2ec50000600581905550670c7d713b49da000060068190555061182a8061007d6000396000f3fe6080604052600436106100c25760003560e01c80635f49cf9c1161007f5780638f473b5a116100595780638f473b5a1461022a578063b96ee0dc14610267578063f09d50be146102a4578063f396d674146102cf576100c2565b80635f49cf9c146101ba5780635f74bbde146101f75780637866865814610213576100c2565b806304b8789b146100c757806306a49fce146100e357806318108d081461010e5780631bdbb2ab146101395780633fe4604314610164578063451891a61461018f575b600080fd5b6100e160048036038101906100dc9190610fbd565b6102fa565b005b3480156100ef57600080fd5b506100f8610555565b60405161010591906114b1565b60405180910390f35b34801561011a57600080fd5b506101236107e6565b604051610130919061160e565b60405180910390f35b34801561014557600080fd5b5061014e6107ec565b60405161015b9190611496565b60405180910390f35b34801561017057600080fd5b50610179610810565b604051610186919061160e565b60405180910390f35b34801561019b57600080fd5b506101a4610816565b6040516101b1919061160e565b60405180910390f35b3480156101c657600080fd5b506101e160048036038101906101dc9190610f58565b61081c565b6040516101ee91906114d3565b60405180910390f35b610211600480360381019061020c9190610f81565b61083c565b005b34801561021f57600080fd5b50610228610c4d565b005b34801561023657600080fd5b50610251600480360381019061024c9190610f58565b610d45565b60405161025e91906114d3565b60405180910390f35b34801561027357600080fd5b5061028e60048036038101906102899190610f58565b610d65565b60405161029b91906114d3565b60405180910390f35b3480156102b057600080fd5b506102b9610d85565b6040516102c6919061160e565b60405180910390f35b3480156102db57600080fd5b506102e4610d8b565b6040516102f1919061160e565b60405180910390f35b600554341461033e576040517f08c379a0000000000000000000000000000000000000000000000000000000008152600401610335906115ae565b60405180910390fd5b600460003373ffffffffffffffffffffffffffffffffffffffff1673ffffffffffffffffffffffffffffffffffffffff16815260200190815260200160002060009054906101000a900460ff16156103cb576040517f08c379a00000000000000000000000000000000000000000000000000000000081526004016103c29061156e565b60405180910390fd5b606060006040518060a001604052808581526020018481526020013373ffffffffffffffffffffffffffffffffffffffff1681526020018381526020016000815250905060096000815480929190600101919050555060038190806001815401808255809150506001900390600052602060002090600502016000909190919091506000820151816000019080519060200190610469929190610d91565b506020820151816001019080519060200190610486929190610d91565b5060408201518160020160006101000a81548173ffffffffffffffffffffffffffffffffffffffff021916908373ffffffffffffffffffffffffffffffffffffffff16021790555060608201518160030190805190602001906104ea929190610e1f565b506080820151816004015550506001600460003373ffffffffffffffffffffffffffffffffffffffff1673ffffffffffffffffffffffffffffffffffffffff16815260200190815260200160002060006101000a81548160ff02191690831515021790555050505050565b60606003805480602002602001604051908101604052809291908181526020016000905b828210156107dd57838290600052602060002090600502016040518060a0016040529081600082018054600181600116156101000203166002900480601f0160208091040260200160405190810160405280929190818152602001828054600181600116156101000203166002900480156106355780601f1061060a57610100808354040283529160200191610635565b820191906000526020600020905b81548152906001019060200180831161061857829003601f168201915b50505050508152602001600182018054600181600116156101000203166002900480601f0160208091040260200160405190810160405280929190818152602001828054600181600116156101000203166002900480156106d75780601f106106ac576101008083540402835291602001916106d7565b820191906000526020600020905b8154815290600101906020018083116106ba57829003601f168201915b505050505081526020016002820160009054906101000a900473ffffffffffffffffffffffffffffffffffffffff1673ffffffffffffffffffffffffffffffffffffffff1673ffffffffffffffffffffffffffffffffffffffff168152602001600382018054806020026020016040519081016040528092919081815260200182805480156107bb57602002820191906000526020600020905b8160009054906101000a900473ffffffffffffffffffffffffffffffffffffffff1673ffffffffffffffffffffffffffffffffffffffff1681526020019060010190808311610771575b5050505050815260200160048201548152505081526020019060010190610579565b50505050905090565b60055481565b60008054906101000a900473ffffffffffffffffffffffffffffffffffffffff1681565b60075481565b60095481565b60026020528060005260406000206000915054906101000a900460ff1681565b60003373ffffffffffffffffffffffffffffffffffffffff16311415610897576040517f08c379a000000000000000000000000000000000000000000000000000000000815260040161088e906115ce565b60405180910390fd5b600160003373ffffffffffffffffffffffffffffffffffffffff1673ffffffffffffffffffffffffffffffffffffffff16815260200190815260200160002060009054906101000a900460ff16610923576040517f08c379a000000000000000000000000000000000000000000000000000000000815260040161091a9061150e565b60405180910390fd5b600260003373ffffffffffffffffffffffffffffffffffffffff1673ffffffffffffffffffffffffffffffffffffffff16815260200190815260200160002060009054906101000a900460ff16156109b0576040517f08c379a00000000000000000000000000000000000000000000000000000000081526004016109a7906114ee565b60405180910390fd5b670c7d713b49da000034146109fa576040517f08c379a00000000000000000000000000000000000000000000000000000000081526004016109f19061158e565b60405180910390fd5b600460008373ffffffffffffffffffffffffffffffffffffffff1673ffffffffffffffffffffffffffffffffffffffff16815260200190815260200160002060009054906101000a900460ff16610a86576040517f08c379a0000000000000000000000000000000000000000000000000000000008152600401610a7d9061154e565b60405180910390fd5b8173ffffffffffffffffffffffffffffffffffffffff1660038281548110610aaa57fe5b906000526020600020906005020160020160009054906101000a900473ffffffffffffffffffffffffffffffffffffffff1673ffffffffffffffffffffffffffffffffffffffff1614610b32576040517f08c379a0000000000000000000000000000000000000000000000000000000008152600401610b29906115ee565b60405180910390fd5b60038181548110610b3f57fe5b90600052602060002090600502016004016000815480929190600101919050555060038181548110610b6d57fe5b9060005260206000209060050201600301339080600181540180825580915050600190039060005260206000200160009091909190916101000a81548173ffffffffffffffffffffffffffffffffffffffff021916908373ffffffffffffffffffffffffffffffffffffffff1602179055506008600081548092919060010191905055506001600260003373ffffffffffffffffffffffffffffffffffffffff1673ffffffffffffffffffffffffffffffffffffffff16815260200190815260200160002060006101000a81548160ff0219169083151502179055505050565b600160003373ffffffffffffffffffffffffffffffffffffffff1673ffffffffffffffffffffffffffffffffffffffff16815260200190815260200160002060009054906101000a900460ff1615610cda576040517f08c379a0000000000000000000000000000000000000000000000000000000008152600401610cd19061152e565b60405180910390fd5b60076000815480929190600101919050555060018060003373ffffffffffffffffffffffffffffffffffffffff1673ffffffffffffffffffffffffffffffffffffffff16815260200190815260200160002060006101000a81548160ff021916908315150217905550565b60046020528060005260406000206000915054906101000a900460ff1681565b60016020528060005260406000206000915054906101000a900460ff1681565b60065481565b60085481565b828054600181600116156101000203166002900490600052602060002090601f016020900481019282610dc75760008555610e0e565b82601f10610de057805160ff1916838001178555610e0e565b82800160010185558215610e0e579182015b82811115610e0d578251825591602001919060010190610df2565b5b509050610e1b9190610ea9565b5090565b828054828255906000526020600020908101928215610e98579160200282015b82811115610e975782518260006101000a81548173ffffffffffffffffffffffffffffffffffffffff021916908373ffffffffffffffffffffffffffffffffffffffff16021790555091602001919060010190610e3f565b5b509050610ea59190610ea9565b5090565b5b80821115610ec2576000816000905550600101610eaa565b5090565b6000610ed9610ed48461165a565b611629565b905082815260208101848484011115610ef157600080fd5b610efc848285611771565b509392505050565b600081359050610f13816117c6565b92915050565b600082601f830112610f2a57600080fd5b8135610f3a848260208601610ec6565b91505092915050565b600081359050610f52816117dd565b92915050565b600060208284031215610f6a57600080fd5b6000610f7884828501610f04565b91505092915050565b60008060408385031215610f9457600080fd5b6000610fa285828601610f04565b9250506020610fb385828601610f43565b9150509250929050565b60008060408385031215610fd057600080fd5b600083013567ffffffffffffffff811115610fea57600080fd5b610ff685828601610f19565b925050602083013567ffffffffffffffff81111561101357600080fd5b61101f85828601610f19565b9150509250929050565b60006110358383611055565b60208301905092915050565b600061104d83836113f4565b905092915050565b61105e81611729565b82525050565b61106d81611729565b82525050565b600061107e826116aa565b61108881856116e5565b93506110938361168a565b8060005b838110156110c45781516110ab8882611029565b97506110b6836116cb565b925050600181019050611097565b5085935050505092915050565b60006110dc826116b5565b6110e681856116f6565b9350836020820285016110f88561169a565b8060005b8581101561113457848403895281516111158582611041565b9450611120836116d8565b925060208a019950506001810190506110fc565b50829750879550505050505092915050565b61114f8161173b565b82525050565b6000611160826116c0565b61116a8185611707565b935061117a818560208601611780565b611183816117b5565b840191505092915050565b600061119b600d83611718565b91507f416c726561647920566f746564000000000000000000000000000000000000006000830152602082019050919050565b60006111db600b83611718565b91507f4e6f74206120566f7465720000000000000000000000000000000000000000006000830152602082019050919050565b600061121b601983611718565b91507f416c7265616479205265676973746572656420566f74657221000000000000006000830152602082019050919050565b600061125b601b83611718565b91507f4e6f7420612056616c69642043616e64696461746520476976656e00000000006000830152602082019050919050565b600061129b601383611718565b91507f416c726561647920612043616e646964617465000000000000000000000000006000830152602082019050919050565b60006112db601c83611718565b91507f496e73756666696369656e742042616c616e636520746f20566f7465000000006000830152602082019050919050565b600061131b601483611718565b91507f57726f6e6720466565732050726f7669646564210000000000000000000000006000830152602082019050919050565b600061135b601483611718565b91507f496e73756666696369656e742042616c616e63650000000000000000000000006000830152602082019050919050565b600061139b602783611718565b91507f43616e64696461746527732061646472657373202620696e64657820646f6e2760008301527f74206d61746368000000000000000000000000000000000000000000000000006020830152604082019050919050565b600060a08301600083015184820360008601526114118282611155565b9150506020830151848203602086015261142b8282611155565b91505060408301516114406040860182611055565b50606083015184820360608601526114588282611073565b915050608083015161146d6080860182611478565b508091505092915050565b61148181611767565b82525050565b61149081611767565b82525050565b60006020820190506114ab6000830184611064565b92915050565b600060208201905081810360008301526114cb81846110d1565b905092915050565b60006020820190506114e86000830184611146565b92915050565b600060208201905081810360008301526115078161118e565b9050919050565b60006020820190508181036000830152611527816111ce565b9050919050565b600060208201905081810360008301526115478161120e565b9050919050565b600060208201905081810360008301526115678161124e565b9050919050565b600060208201905081810360008301526115878161128e565b9050919050565b600060208201905081810360008301526115a7816112ce565b9050919050565b600060208201905081810360008301526115c78161130e565b9050919050565b600060208201905081810360008301526115e78161134e565b9050919050565b600060208201905081810360008301526116078161138e565b9050919050565b60006020820190506116236000830184611487565b92915050565b6000604051905081810181811067ffffffffffffffff821117156116505761164f6117b3565b5b8060405250919050565b600067ffffffffffffffff821115611675576116746117b3565b5b601f19601f8301169050602081019050919050565b6000819050602082019050919050565b6000819050602082019050919050565b600081519050919050565b600081519050919050565b600081519050919050565b6000602082019050919050565b6000602082019050919050565b600082825260208201905092915050565b600082825260208201905092915050565b600082825260208201905092915050565b600082825260208201905092915050565b600061173482611747565b9050919050565b60008115159050919050565b600073ffffffffffffffffffffffffffffffffffffffff82169050919050565b6000819050919050565b82818337600083830152505050565b60005b8381101561179e578082015181840152602081019050611783565b838111156117ad576000848401525b50505050565bfe5b6000601f19601f8301169050919050565b6117cf81611729565b81146117da57600080fd5b50565b6117e681611767565b81146117f157600080fd5b5056fea2646970667358221220c05656f46d936ec17156a9a07f595bb1feaeab31d7bfc20ad042fd672687a38964736f6c63430007060033",
  "immutableReferences": {},
  "source": "pragma solidity >=0.5 <0.8;\npragma experimental ABIEncoderV2;\n\ncontract eVoting {\n    \n    struct Candidate {\n        string name;\n        string party;\n        address accountAddress;\n        address[] voters;\n        uint votersCount;\n    }\n    \n    address public electionCommissioner;\n    \n    mapping(address=>bool) public totalVotersList;\n    mapping(address=>bool) public votedList;\n    \n    Candidate[] candidatesList;\n    mapping(address=>bool) public candidatesMap;\n    \n    uint public feesForCandidates;\n    uint public feesForVoters;\n    uint public totalVotersCount;\n    uint public totalVotesCount;\n    uint public totalCandidatesCount;\n\n     \n    modifier restrictVoting() {\n        require(msg.sender.balance!=0,\"Insufficient Balance\");\n        require(totalVotersList[msg.sender],\"Not a Voter\");\n        require(!votedList[msg.sender],\"Already Voted\");\n        require(msg.value == 0.9 ether,\"Insufficient Balance to Vote\");\n        _;\n    }\n    \n    constructor() {\n        electionCommissioner=msg.sender;\n        feesForCandidates=0.05 ether;\n        feesForVoters=0.9 ether;\n    }\n    \n    \n    function registerAsCandidate(string memory name, string memory party) public payable {\n        require(msg.value==feesForCandidates,\"Wrong Fees Provided!\");\n        require(!candidatesMap[msg.sender],\"Already a Candidate\");\n        address[] memory voters;\n        Candidate memory candidate=Candidate({\n            name:name,\n            party:party,\n            accountAddress:msg.sender,\n            voters:voters,\n            votersCount:0\n        });\n        totalCandidatesCount++;\n        candidatesList.push(candidate);\n        candidatesMap[msg.sender]=true;\n    }\n    \n    function registerAsVoter() public {\n        require(!totalVotersList[msg.sender],\"Already Registered Voter!\");\n        totalVotersCount++;\n        totalVotersList[msg.sender]=true;\n    }\n    \n    function getCandidates() public view returns(Candidate[] memory) {\n        return candidatesList;\n    }\n    \n   \n    function vote(address candidate, uint index) public payable restrictVoting {\n        require(candidatesMap[candidate],\"Not a Valid Candidate Given\");\n        require(candidatesList[index].accountAddress==candidate,\"Candidate's address & index don't match\");\n        candidatesList[index].votersCount++;\n        candidatesList[index].voters.push(msg.sender);\n        totalVotesCount++;\n        votedList[msg.sender]=true;\n    }\n    \n}",
  "sourcePath": "/Users/saarthak08/Documents/Projects/e-Voting/Blockchain-Backend/contracts/eVoting.sol",
  "compiler": {
    "name": "solc",
    "version": "0.7.6+commit.7338295f.Emscripten.clang"
  },
  "schemaVersion": "3.3.3",
  "updatedAt": "2021-01-03T17:03:45.644Z",
  "networkType": "ethereum",
  "devdoc": {
    "kind": "dev",
    "methods": {},
    "version": 1
  },
  "userdoc": {
    "kind": "user",
    "methods": {},
    "version": 1
  }
}